{
  "_format": "hh-sol-artifact-1",
  "contractName": "MyContract",
  "sourceName": "contracts/MyContract.sol",
  "abi": [
    {
      "anonymous": false,
      "inputs": [
        {
          "indexed": false,
          "internalType": "string",
          "name": "message",
          "type": "string"
        },
        {
          "indexed": false,
          "internalType": "uint256",
          "name": "value1",
          "type": "uint256"
        },
        {
          "indexed": false,
          "internalType": "uint256",
          "name": "value2",
          "type": "uint256"
        }
      ],
      "name": "DebugInfo",
      "type": "event"
    },
    {
      "anonymous": false,
      "inputs": [
        {
          "indexed": true,
          "internalType": "address",
          "name": "seller",
          "type": "address"
        },
        {
          "indexed": false,
          "internalType": "uint256",
          "name": "energyAmount",
          "type": "uint256"
        },
        {
          "indexed": false,
          "internalType": "uint256",
          "name": "pricePerKWh",
          "type": "uint256"
        }
      ],
      "name": "OfferPlaced",
      "type": "event"
    },
    {
      "anonymous": false,
      "inputs": [
        {
          "indexed": true,
          "internalType": "address",
          "name": "buyer",
          "type": "address"
        },
        {
          "indexed": false,
          "internalType": "uint256",
          "name": "energyAmount",
          "type": "uint256"
        },
        {
          "indexed": false,
          "internalType": "uint256",
          "name": "maxPricePerKWh",
          "type": "uint256"
        }
      ],
      "name": "RequestPlaced",
      "type": "event"
    },
    {
      "anonymous": false,
      "inputs": [
        {
          "indexed": true,
          "internalType": "address",
          "name": "seller",
          "type": "address"
        },
        {
          "indexed": true,
          "internalType": "address",
          "name": "buyer",
          "type": "address"
        },
        {
          "indexed": false,
          "internalType": "uint256",
          "name": "energyAmount",
          "type": "uint256"
        },
        {
          "indexed": false,
          "internalType": "uint256",
          "name": "totalPrice",
          "type": "uint256"
        }
      ],
      "name": "TradeExecuted",
      "type": "event"
    },
    {
      "inputs": [],
      "name": "getOffers",
      "outputs": [
        {
          "internalType": "uint256[]",
          "name": "energyAmounts",
          "type": "uint256[]"
        },
        {
          "internalType": "uint256[]",
          "name": "pricesPerKWh",
          "type": "uint256[]"
        },
        {
          "internalType": "address[]",
          "name": "sellers",
          "type": "address[]"
        }
      ],
      "stateMutability": "view",
      "type": "function"
    },
    {
      "inputs": [
        {
          "internalType": "uint256",
          "name": "",
          "type": "uint256"
        }
      ],
      "name": "offers",
      "outputs": [
        {
          "internalType": "uint256",
          "name": "energyAmount",
          "type": "uint256"
        },
        {
          "internalType": "uint256",
          "name": "pricePerKWh",
          "type": "uint256"
        },
        {
          "internalType": "address",
          "name": "seller",
          "type": "address"
        }
      ],
      "stateMutability": "view",
      "type": "function"
    },
    {
      "inputs": [
        {
          "internalType": "uint256",
          "name": "_energyAmount",
          "type": "uint256"
        },
        {
          "internalType": "uint256",
          "name": "_pricePerKWh",
          "type": "uint256"
        }
      ],
      "name": "placeOffer",
      "outputs": [],
      "stateMutability": "nonpayable",
      "type": "function"
    },
    {
      "inputs": [
        {
          "internalType": "uint256",
          "name": "_energyAmount",
          "type": "uint256"
        },
        {
          "internalType": "uint256",
          "name": "_maxPricePerKWh",
          "type": "uint256"
        }
      ],
      "name": "placeRequest",
      "outputs": [],
      "stateMutability": "payable",
      "type": "function"
    },
    {
      "inputs": [
        {
          "internalType": "uint256",
          "name": "",
          "type": "uint256"
        }
      ],
      "name": "requests",
      "outputs": [
        {
          "internalType": "uint256",
          "name": "energyAmount",
          "type": "uint256"
        },
        {
          "internalType": "uint256",
          "name": "maxPricePerKWh",
          "type": "uint256"
        },
        {
          "internalType": "address",
          "name": "buyer",
          "type": "address"
        }
      ],
      "stateMutability": "view",
      "type": "function"
    }
  ],
  "bytecode": "0x608060405234801561001057600080fd5b50611707806100206000396000f3fe60806040526004361061004a5760003560e01c8063179ab3cd1461004f5780633ee992ee1461006b57806381d12c58146100985780638a72ea6a146100d7578063a95902b214610116575b600080fd5b61006960048036038101906100649190610d59565b61013f565b005b34801561007757600080fd5b50610080610417565b60405161008f93929190610f47565b60405180910390f35b3480156100a457600080fd5b506100bf60048036038101906100ba9190610f93565b610660565b6040516100ce93929190610fde565b60405180910390f35b3480156100e357600080fd5b506100fe60048036038101906100f99190610f93565b6106ba565b60405161010d93929190610fde565b60405180910390f35b34801561012257600080fd5b5061013d60048036038101906101389190610d59565b610714565b005b7fb8cbf824c7adf81e5154b12515fb2818da4c251b78fb7924ab075c551a50be578282604051610170929190611072565b60405180910390a17fb8cbf824c7adf81e5154b12515fb2818da4c251b78fb7924ab075c551a50be573482846101a691906110dd565b6040516101b492919061116b565b60405180910390a1600082116101ff576040517f08c379a00000000000000000000000000000000000000000000000000000000081526004016101f690611219565b60405180910390fd5b60008111610242576040517f08c379a0000000000000000000000000000000000000000000000000000000008152600401610239906112ab565b60405180910390fd5b808261024e91906110dd565b341015610290576040517f08c379a00000000000000000000000000000000000000000000000000000000081526004016102879061133d565b60405180910390fd5b7fb8cbf824c7adf81e5154b12515fb2818da4c251b78fb7924ab075c551a50be5782826040516102c19291906113a9565b60405180910390a1600160405180606001604052808481526020018381526020013373ffffffffffffffffffffffffffffffffffffffff168152509080600181540180825580915050600190039060005260206000209060030201600090919091909150600082015181600001556020820151816001015560408201518160020160006101000a81548173ffffffffffffffffffffffffffffffffffffffff021916908373ffffffffffffffffffffffffffffffffffffffff16021790555050507fb8cbf824c7adf81e5154b12515fb2818da4c251b78fb7924ab075c551a50be5782826040516103b3929190611431565b60405180910390a13373ffffffffffffffffffffffffffffffffffffffff167ff24e018043961da1f8a55ec0ca77612dd4f972aa2d397c7d074dfe8fc719af4f838360405161040392919061146d565b60405180910390a26104136108a7565b5050565b60608060606000808054905090508067ffffffffffffffff81111561043f5761043e611496565b5b60405190808252806020026020018201604052801561046d5781602001602082028036833780820191505090505b5093508067ffffffffffffffff81111561048a57610489611496565b5b6040519080825280602002602001820160405280156104b85781602001602082028036833780820191505090505b5092508067ffffffffffffffff8111156104d5576104d4611496565b5b6040519080825280602002602001820160405280156105035781602001602082028036833780820191505090505b50915060005b81811015610659576000808281548110610526576105256114c5565b5b906000526020600020906003020160405180606001604052908160008201548152602001600182015481526020016002820160009054906101000a900473ffffffffffffffffffffffffffffffffffffffff1673ffffffffffffffffffffffffffffffffffffffff1673ffffffffffffffffffffffffffffffffffffffff1681525050905080600001518683815181106105c3576105c26114c5565b5b60200260200101818152505080602001518583815181106105e7576105e66114c5565b5b602002602001018181525050806040015184838151811061060b5761060a6114c5565b5b602002602001019073ffffffffffffffffffffffffffffffffffffffff16908173ffffffffffffffffffffffffffffffffffffffff1681525050508080610651906114f4565b915050610509565b5050909192565b6001818154811061067057600080fd5b90600052602060002090600302016000915090508060000154908060010154908060020160009054906101000a900473ffffffffffffffffffffffffffffffffffffffff16905083565b600081815481106106ca57600080fd5b90600052602060002090600302016000915090508060000154908060010154908060020160009054906101000a900473ffffffffffffffffffffffffffffffffffffffff16905083565b60008211610757576040517f08c379a000000000000000000000000000000000000000000000000000000000815260040161074e90611219565b60405180910390fd5b6000811161079a576040517f08c379a0000000000000000000000000000000000000000000000000000000008152600401610791906115ae565b60405180910390fd5b600060405180606001604052808481526020018381526020013373ffffffffffffffffffffffffffffffffffffffff168152509080600181540180825580915050600190039060005260206000209060030201600090919091909150600082015181600001556020820151816001015560408201518160020160006101000a81548173ffffffffffffffffffffffffffffffffffffffff021916908373ffffffffffffffffffffffffffffffffffffffff16021790555050503373ffffffffffffffffffffffffffffffffffffffff167fbd6897d6ab8a2726fd0560037489e08c4a4907621eaef87bdf6e8cc6ae5dadb4838360405161089b92919061146d565b60405180910390a25050565b60005b600180549050811015610b70576000600182815481106108cd576108cc6114c5565b5b906000526020600020906003020160405180606001604052908160008201548152602001600182015481526020016002820160009054906101000a900473ffffffffffffffffffffffffffffffffffffffff1673ffffffffffffffffffffffffffffffffffffffff1673ffffffffffffffffffffffffffffffffffffffff1681525050905060005b600080549050811015610b5b576000808281548110610977576109766114c5565b5b906000526020600020906003020160405180606001604052908160008201548152602001600182015481526020016002820160009054906101000a900473ffffffffffffffffffffffffffffffffffffffff1673ffffffffffffffffffffffffffffffffffffffff1673ffffffffffffffffffffffffffffffffffffffff168152505090508260000151816000015110158015610a1c57508260200151816020015111155b15610b4757600081602001518460000151610a3791906110dd565b9050816040015173ffffffffffffffffffffffffffffffffffffffff166108fc829081150290604051600060405180830381858888f19350505050158015610a83573d6000803e3d6000fd5b50836040015173ffffffffffffffffffffffffffffffffffffffff16826040015173ffffffffffffffffffffffffffffffffffffffff167f54424bcd37c121359634358c4b6124e821af711811c1ad2fb8f96b94b046338c866000015184604051610aef92919061146d565b60405180910390a3836000015160008481548110610b1057610b0f6114c5565b5b90600052602060002090600302016000016000828254610b3091906115ce565b92505081905550610b4085610b73565b5050610b5b565b508080610b53906114f4565b915050610955565b50508080610b68906114f4565b9150506108aa565b50565b6001805490508110610bba576040517f08c379a0000000000000000000000000000000000000000000000000000000008152600401610bb19061164e565b60405180910390fd5b60008190505b60018080549050610bd191906115ce565b811015610cb85760018082610be6919061166e565b81548110610bf757610bf66114c5565b5b906000526020600020906003020160018281548110610c1957610c186114c5565b5b906000526020600020906003020160008201548160000155600182015481600101556002820160009054906101000a900473ffffffffffffffffffffffffffffffffffffffff168160020160006101000a81548173ffffffffffffffffffffffffffffffffffffffff021916908373ffffffffffffffffffffffffffffffffffffffff1602179055509050508080610cb0906114f4565b915050610bc0565b506001805480610ccb57610cca6116a2565b5b600190038181906000526020600020906003020160008082016000905560018201600090556002820160006101000a81549073ffffffffffffffffffffffffffffffffffffffff02191690555050905550565b600080fd5b6000819050919050565b610d3681610d23565b8114610d4157600080fd5b50565b600081359050610d5381610d2d565b92915050565b60008060408385031215610d7057610d6f610d1e565b5b6000610d7e85828601610d44565b9250506020610d8f85828601610d44565b9150509250929050565b600081519050919050565b600082825260208201905092915050565b6000819050602082019050919050565b610dce81610d23565b82525050565b6000610de08383610dc5565b60208301905092915050565b6000602082019050919050565b6000610e0482610d99565b610e0e8185610da4565b9350610e1983610db5565b8060005b83811015610e4a578151610e318882610dd4565b9750610e3c83610dec565b925050600181019050610e1d565b5085935050505092915050565b600081519050919050565b600082825260208201905092915050565b6000819050602082019050919050565b600073ffffffffffffffffffffffffffffffffffffffff82169050919050565b6000610eae82610e83565b9050919050565b610ebe81610ea3565b82525050565b6000610ed08383610eb5565b60208301905092915050565b6000602082019050919050565b6000610ef482610e57565b610efe8185610e62565b9350610f0983610e73565b8060005b83811015610f3a578151610f218882610ec4565b9750610f2c83610edc565b925050600181019050610f0d565b5085935050505092915050565b60006060820190508181036000830152610f618186610df9565b90508181036020830152610f758185610df9565b90508181036040830152610f898184610ee9565b9050949350505050565b600060208284031215610fa957610fa8610d1e565b5b6000610fb784828501610d44565b91505092915050565b610fc981610d23565b82525050565b610fd881610ea3565b82525050565b6000606082019050610ff36000830186610fc0565b6110006020830185610fc0565b61100d6040830184610fcf565b949350505050565b600082825260208201905092915050565b7f53746172742066756e6374696f6e000000000000000000000000000000000000600082015250565b600061105c600e83611015565b915061106782611026565b602082019050919050565b6000606082019050818103600083015261108b8161104f565b905061109a6020830185610fc0565b6110a76040830184610fc0565b9392505050565b7f4e487b7100000000000000000000000000000000000000000000000000000000600052601160045260246000fd5b60006110e882610d23565b91506110f383610d23565b925082820261110181610d23565b91508282048414831517611118576111176110ae565b5b5092915050565b7f6d73672e76616c75650000000000000000000000000000000000000000000000600082015250565b6000611155600983611015565b91506111608261111f565b602082019050919050565b6000606082019050818103600083015261118481611148565b90506111936020830185610fc0565b6111a06040830184610fc0565b9392505050565b7f456e6572677920616d6f756e74206d757374206265206772656174657220746860008201527f616e207a65726f2e000000000000000000000000000000000000000000000000602082015250565b6000611203602883611015565b915061120e826111a7565b604082019050919050565b60006020820190508181036000830152611232816111f6565b9050919050565b7f4d6178696d756d20707269636520706572206b5768206d75737420626520677260008201527f6561746572207468616e207a65726f2e00000000000000000000000000000000602082015250565b6000611295603083611015565b91506112a082611239565b604082019050919050565b600060208201905081810360008301526112c481611288565b9050919050565b7f496e73756666696369656e742045746865722073656e7420666f72207468652060008201527f726571756573742e000000000000000000000000000000000000000000000000602082015250565b6000611327602883611015565b9150611332826112cb565b604082019050919050565b600060208201905081810360008301526113568161131a565b9050919050565b7f5061737365642072657175697265730000000000000000000000000000000000600082015250565b6000611393600f83611015565b915061139e8261135d565b602082019050919050565b600060608201905081810360008301526113c281611386565b90506113d16020830185610fc0565b6113de6040830184610fc0565b9392505050565b7f5265717565737420616464656400000000000000000000000000000000000000600082015250565b600061141b600d83611015565b9150611426826113e5565b602082019050919050565b6000606082019050818103600083015261144a8161140e565b90506114596020830185610fc0565b6114666040830184610fc0565b9392505050565b60006040820190506114826000830185610fc0565b61148f6020830184610fc0565b9392505050565b7f4e487b7100000000000000000000000000000000000000000000000000000000600052604160045260246000fd5b7f4e487b7100000000000000000000000000000000000000000000000000000000600052603260045260246000fd5b60006114ff82610d23565b91507fffffffffffffffffffffffffffffffffffffffffffffffffffffffffffffffff8203611531576115306110ae565b5b600182019050919050565b7f507269636520706572206b5768206d757374206265206772656174657220746860008201527f616e207a65726f2e000000000000000000000000000000000000000000000000602082015250565b6000611598602883611015565b91506115a38261153c565b604082019050919050565b600060208201905081810360008301526115c78161158b565b9050919050565b60006115d982610d23565b91506115e483610d23565b92508282039050818111156115fc576115fb6110ae565b5b92915050565b7f496e76616c6964207265717565737420696e6465782e00000000000000000000600082015250565b6000611638601683611015565b915061164382611602565b602082019050919050565b600060208201905081810360008301526116678161162b565b9050919050565b600061167982610d23565b915061168483610d23565b925082820190508082111561169c5761169b6110ae565b5b92915050565b7f4e487b7100000000000000000000000000000000000000000000000000000000600052603160045260246000fdfea2646970667358221220717d23bf817e2b6dd4d489cbea2cf34e88af1b29ba7773a8cb08301db0a5f0ae64736f6c63430008120033",
  "linkReferences": {},
  "deployedLinkReferences": {}
}