{
  "_format": "hh-sol-artifact-1",
  "contractName": "MyContract",
  "sourceName": "contracts/MyContract.sol",
  "abi": [
    {
      "anonymous": false,
      "inputs": [
        {
          "indexed": true,
          "internalType": "address",
          "name": "seller",
          "type": "address"
        },
        {
          "indexed": false,
          "internalType": "uint256",
          "name": "energyAmount",
          "type": "uint256"
        },
        {
          "indexed": false,
          "internalType": "uint256",
          "name": "pricePerKWh",
          "type": "uint256"
        }
      ],
      "name": "OfferPlaced",
      "type": "event"
    },
    {
      "anonymous": false,
      "inputs": [
        {
          "indexed": true,
          "internalType": "address",
          "name": "buyer",
          "type": "address"
        },
        {
          "indexed": false,
          "internalType": "uint256",
          "name": "energyAmount",
          "type": "uint256"
        },
        {
          "indexed": false,
          "internalType": "uint256",
          "name": "maxPricePerKWh",
          "type": "uint256"
        }
      ],
      "name": "RequestPlaced",
      "type": "event"
    },
    {
      "anonymous": false,
      "inputs": [
        {
          "indexed": true,
          "internalType": "address",
          "name": "seller",
          "type": "address"
        },
        {
          "indexed": true,
          "internalType": "address",
          "name": "buyer",
          "type": "address"
        },
        {
          "indexed": false,
          "internalType": "uint256",
          "name": "energyAmount",
          "type": "uint256"
        },
        {
          "indexed": false,
          "internalType": "uint256",
          "name": "totalPrice",
          "type": "uint256"
        }
      ],
      "name": "TradeExecuted",
      "type": "event"
    },
    {
      "inputs": [],
      "name": "getContractBalance",
      "outputs": [
        {
          "internalType": "uint256",
          "name": "",
          "type": "uint256"
        }
      ],
      "stateMutability": "view",
      "type": "function"
    },
    {
      "inputs": [],
      "name": "getOffers",
      "outputs": [
        {
          "internalType": "uint256[]",
          "name": "energyAmounts",
          "type": "uint256[]"
        },
        {
          "internalType": "uint256[]",
          "name": "pricesPerKWh",
          "type": "uint256[]"
        },
        {
          "internalType": "address[]",
          "name": "sellers",
          "type": "address[]"
        }
      ],
      "stateMutability": "view",
      "type": "function"
    },
    {
      "inputs": [],
      "name": "getRequests",
      "outputs": [
        {
          "internalType": "uint256[]",
          "name": "energyAmounts",
          "type": "uint256[]"
        },
        {
          "internalType": "uint256[]",
          "name": "maxPricesPerKWh",
          "type": "uint256[]"
        },
        {
          "internalType": "address[]",
          "name": "buyers",
          "type": "address[]"
        }
      ],
      "stateMutability": "view",
      "type": "function"
    },
    {
      "inputs": [
        {
          "internalType": "uint256",
          "name": "",
          "type": "uint256"
        }
      ],
      "name": "offers",
      "outputs": [
        {
          "internalType": "uint256",
          "name": "energyAmount",
          "type": "uint256"
        },
        {
          "internalType": "uint256",
          "name": "pricePerKWh",
          "type": "uint256"
        },
        {
          "internalType": "address",
          "name": "seller",
          "type": "address"
        }
      ],
      "stateMutability": "view",
      "type": "function"
    },
    {
      "inputs": [
        {
          "internalType": "uint256",
          "name": "_energyAmount",
          "type": "uint256"
        },
        {
          "internalType": "uint256",
          "name": "_pricePerKWh",
          "type": "uint256"
        }
      ],
      "name": "placeOffer",
      "outputs": [],
      "stateMutability": "nonpayable",
      "type": "function"
    },
    {
      "inputs": [
        {
          "internalType": "uint256",
          "name": "_energyAmount",
          "type": "uint256"
        },
        {
          "internalType": "uint256",
          "name": "_maxPricePerKWh",
          "type": "uint256"
        }
      ],
      "name": "placeRequest",
      "outputs": [],
      "stateMutability": "payable",
      "type": "function"
    },
    {
      "inputs": [
        {
          "internalType": "uint256",
          "name": "",
          "type": "uint256"
        }
      ],
      "name": "requests",
      "outputs": [
        {
          "internalType": "uint256",
          "name": "energyAmount",
          "type": "uint256"
        },
        {
          "internalType": "uint256",
          "name": "maxPricePerKWh",
          "type": "uint256"
        },
        {
          "internalType": "address",
          "name": "buyer",
          "type": "address"
        }
      ],
      "stateMutability": "view",
      "type": "function"
    }
  ],
  "bytecode": "0x608060405234801561001057600080fd5b50611082806100206000396000f3fe6080604052600436106100705760003560e01c806381d12c581161004e57806381d12c58146100e95780638813ce12146101285780638a72ea6a14610155578063a95902b21461019457610070565b8063179ab3cd146100755780633ee992ee146100915780636f9fb98a146100be575b600080fd5b61008f600480360381019061008a9190610a7c565b6101bd565b005b34801561009d57600080fd5b506100a661035e565b6040516100b593929190610c6a565b60405180910390f35b3480156100ca57600080fd5b506100d36105a7565b6040516100e09190610cc5565b60405180910390f35b3480156100f557600080fd5b50610110600480360381019061010b9190610ce0565b6105af565b60405161011f93929190610d1c565b60405180910390f35b34801561013457600080fd5b5061013d610609565b60405161014c93929190610c6a565b60405180910390f35b34801561016157600080fd5b5061017c60048036038101906101779190610ce0565b610854565b60405161018b93929190610d1c565b60405180910390f35b3480156101a057600080fd5b506101bb60048036038101906101b69190610a7c565b6108ae565b005b60008211610200576040517f08c379a00000000000000000000000000000000000000000000000000000000081526004016101f790610dd6565b60405180910390fd5b60008111610243576040517f08c379a000000000000000000000000000000000000000000000000000000000815260040161023a90610e68565b60405180910390fd5b60016040518060600160405280848152602001622dc6c0846102659190610eb7565b81526020013373ffffffffffffffffffffffffffffffffffffffff168152509080600181540180825580915050600190039060005260206000209060030201600090919091909150600082015181600001556020820151816001015560408201518160020160006101000a81548173ffffffffffffffffffffffffffffffffffffffff021916908373ffffffffffffffffffffffffffffffffffffffff16021790555050503373ffffffffffffffffffffffffffffffffffffffff167ff24e018043961da1f8a55ec0ca77612dd4f972aa2d397c7d074dfe8fc719af4f8383604051610352929190610eeb565b60405180910390a25050565b60608060606000808054905090508067ffffffffffffffff81111561038657610385610f14565b5b6040519080825280602002602001820160405280156103b45781602001602082028036833780820191505090505b5093508067ffffffffffffffff8111156103d1576103d0610f14565b5b6040519080825280602002602001820160405280156103ff5781602001602082028036833780820191505090505b5092508067ffffffffffffffff81111561041c5761041b610f14565b5b60405190808252806020026020018201604052801561044a5781602001602082028036833780820191505090505b50915060005b818110156105a057600080828154811061046d5761046c610f43565b5b906000526020600020906003020160405180606001604052908160008201548152602001600182015481526020016002820160009054906101000a900473ffffffffffffffffffffffffffffffffffffffff1673ffffffffffffffffffffffffffffffffffffffff1673ffffffffffffffffffffffffffffffffffffffff16815250509050806000015186838151811061050a57610509610f43565b5b602002602001018181525050806020015185838151811061052e5761052d610f43565b5b602002602001018181525050806040015184838151811061055257610551610f43565b5b602002602001019073ffffffffffffffffffffffffffffffffffffffff16908173ffffffffffffffffffffffffffffffffffffffff168152505050808061059890610f72565b915050610450565b5050909192565b600047905090565b600181815481106105bf57600080fd5b90600052602060002090600302016000915090508060000154908060010154908060020160009054906101000a900473ffffffffffffffffffffffffffffffffffffffff16905083565b6060806060600060018054905090508067ffffffffffffffff81111561063257610631610f14565b5b6040519080825280602002602001820160405280156106605781602001602082028036833780820191505090505b5093508067ffffffffffffffff81111561067d5761067c610f14565b5b6040519080825280602002602001820160405280156106ab5781602001602082028036833780820191505090505b5092508067ffffffffffffffff8111156106c8576106c7610f14565b5b6040519080825280602002602001820160405280156106f65781602001602082028036833780820191505090505b50915060005b8181101561084d5760006001828154811061071a57610719610f43565b5b906000526020600020906003020160405180606001604052908160008201548152602001600182015481526020016002820160009054906101000a900473ffffffffffffffffffffffffffffffffffffffff1673ffffffffffffffffffffffffffffffffffffffff1673ffffffffffffffffffffffffffffffffffffffff1681525050905080600001518683815181106107b7576107b6610f43565b5b60200260200101818152505080602001518583815181106107db576107da610f43565b5b60200260200101818152505080604001518483815181106107ff576107fe610f43565b5b602002602001019073ffffffffffffffffffffffffffffffffffffffff16908173ffffffffffffffffffffffffffffffffffffffff168152505050808061084590610f72565b9150506106fc565b5050909192565b6000818154811061086457600080fd5b90600052602060002090600302016000915090508060000154908060010154908060020160009054906101000a900473ffffffffffffffffffffffffffffffffffffffff16905083565b600082116108f1576040517f08c379a00000000000000000000000000000000000000000000000000000000081526004016108e890610dd6565b60405180910390fd5b60008111610934576040517f08c379a000000000000000000000000000000000000000000000000000000000815260040161092b9061102c565b60405180910390fd5b600060405180606001604052808481526020018381526020013373ffffffffffffffffffffffffffffffffffffffff168152509080600181540180825580915050600190039060005260206000209060030201600090919091909150600082015181600001556020820151816001015560408201518160020160006101000a81548173ffffffffffffffffffffffffffffffffffffffff021916908373ffffffffffffffffffffffffffffffffffffffff16021790555050503373ffffffffffffffffffffffffffffffffffffffff167fbd6897d6ab8a2726fd0560037489e08c4a4907621eaef87bdf6e8cc6ae5dadb48383604051610a35929190610eeb565b60405180910390a25050565b600080fd5b6000819050919050565b610a5981610a46565b8114610a6457600080fd5b50565b600081359050610a7681610a50565b92915050565b60008060408385031215610a9357610a92610a41565b5b6000610aa185828601610a67565b9250506020610ab285828601610a67565b9150509250929050565b600081519050919050565b600082825260208201905092915050565b6000819050602082019050919050565b610af181610a46565b82525050565b6000610b038383610ae8565b60208301905092915050565b6000602082019050919050565b6000610b2782610abc565b610b318185610ac7565b9350610b3c83610ad8565b8060005b83811015610b6d578151610b548882610af7565b9750610b5f83610b0f565b925050600181019050610b40565b5085935050505092915050565b600081519050919050565b600082825260208201905092915050565b6000819050602082019050919050565b600073ffffffffffffffffffffffffffffffffffffffff82169050919050565b6000610bd182610ba6565b9050919050565b610be181610bc6565b82525050565b6000610bf38383610bd8565b60208301905092915050565b6000602082019050919050565b6000610c1782610b7a565b610c218185610b85565b9350610c2c83610b96565b8060005b83811015610c5d578151610c448882610be7565b9750610c4f83610bff565b925050600181019050610c30565b5085935050505092915050565b60006060820190508181036000830152610c848186610b1c565b90508181036020830152610c988185610b1c565b90508181036040830152610cac8184610c0c565b9050949350505050565b610cbf81610a46565b82525050565b6000602082019050610cda6000830184610cb6565b92915050565b600060208284031215610cf657610cf5610a41565b5b6000610d0484828501610a67565b91505092915050565b610d1681610bc6565b82525050565b6000606082019050610d316000830186610cb6565b610d3e6020830185610cb6565b610d4b6040830184610d0d565b949350505050565b600082825260208201905092915050565b7f456e6572677920616d6f756e74206d757374206265206772656174657220746860008201527f616e207a65726f2e000000000000000000000000000000000000000000000000602082015250565b6000610dc0602883610d53565b9150610dcb82610d64565b604082019050919050565b60006020820190508181036000830152610def81610db3565b9050919050565b7f4d6178696d756d20707269636520706572206b5768206d75737420626520677260008201527f6561746572207468616e207a65726f2e00000000000000000000000000000000602082015250565b6000610e52603083610d53565b9150610e5d82610df6565b604082019050919050565b60006020820190508181036000830152610e8181610e45565b9050919050565b7f4e487b7100000000000000000000000000000000000000000000000000000000600052601160045260246000fd5b6000610ec282610a46565b9150610ecd83610a46565b9250828201905080821115610ee557610ee4610e88565b5b92915050565b6000604082019050610f006000830185610cb6565b610f0d6020830184610cb6565b9392505050565b7f4e487b7100000000000000000000000000000000000000000000000000000000600052604160045260246000fd5b7f4e487b7100000000000000000000000000000000000000000000000000000000600052603260045260246000fd5b6000610f7d82610a46565b91507fffffffffffffffffffffffffffffffffffffffffffffffffffffffffffffffff8203610faf57610fae610e88565b5b600182019050919050565b7f507269636520706572206b5768206d757374206265206772656174657220746860008201527f616e207a65726f2e000000000000000000000000000000000000000000000000602082015250565b6000611016602883610d53565b915061102182610fba565b604082019050919050565b6000602082019050818103600083015261104581611009565b905091905056fea26469706673582212205e504298d67dcd416b1ed4751b6c068f30c520da2b3608b691cd27848d8a639e64736f6c63430008120033",
  "linkReferences": {},
  "deployedLinkReferences": {}
}